:1000000003308A00C02B0000F330F934A012EC3A20
:1000100000000C2B6136F532BD12EC3A000038308E
:10002000840083130008031923280130F800F70126
:10003000F70B1828F80B17284A30F700F70B1E2883
:100040002128800B152808003F0EF039F7000F30EB
:10005000080577048800000008142E2808100800FE
:100060000808F700080E0F39F8000800831608107A
:1000700088100811831288100F3083160805F03895
:10008000880083120815000008140000302078084A
:10009000BF00081000000814000030207808BE00DF
:1000A00008100F3083160805880083123F0EF700F2
:1000B000F030F70577083E04F8007808BE00BE1B54
:1000C0003C283C1C88103C188814000008110000D3
:1000D00008103D0EBE000F30BE053E08BF002420B4
:1000E0003D080F39BE00BF00242008002830AF00B3
:1000F0000C30B0000130B1000630B200081088109A
:1001000008110F30831608058800081088100811A0
:100110000F308312B8000F200130AE002E08033CD0
:10012000031C9A280330BF0024200530B8000F209C
:10013000AE0A8E280230BF0024200530B8000F2000
:10014000AE012E08033C031CB1282F302E0784007B
:1001500083130008B300BC013308BD003620AE0A8B
:10016000A1288A110A12D82B80080319CA28AF01C6
:100170000408AE002F10831B2F1400080C1EBE288D
:1001800099002E08840083132F188317840A0319FB
:10019000850AB4288A110A12EA2BB401B2010A3086
:1001A000B300B101B0012E082F04031DDB2800307D
:1001B000F800F900002A3408B40A2E0784008313DB
:1001C0002F1883170008B50035082D3C031DF428AF
:1001D0000130B2003408B40A2E07840083132F18AC
:1001E00083170008B500012935082B3C031D0129A0
:1001F0003408B40A2E07840083132F1883170008CD
:10020000B50035082F3C0318F1293508393C031C8B
:10021000F1293508303C031D2D2934082E078400B0
:1002200083132F1883170008783C031921293408F9
:100230002E07840083132F1883170008583C031DD2
:100240002D291030B300B40A3408B40A2E078400F4
:1002500083132F1883170008B50033080A3C031DC9
:10026000802935082F3C03187F293508393C031CA9
:100270007F29B7010A30B6003108B9003008B8004C
:10028000370839068039BB00B71F4B29B609B709B3
:10029000B60A0319B70AB91F5229B809B909B80A29
:1002A0000319B90A1030BA00F701FA01B70CB60CFD
:1002B000031C60293808F7070318FA0A3908FA07F7
:1002C000FA0CF70CF90CF80CBA0B5629BB1F6D2968
:1002D000F809F909F80A0319F90A303035027807E4
:1002E000B0007908B1000318B10A3408B40A2E0727
:1002F000840083132F1883170008B5003129F129D2
:100300003308103C031DF1293508603C03188F2980
:1003100035087A3C031C8F293508DF3990293508C8
:10032000B50035082F3C031899293508393C0318C6
:10033000A1293508403C0318F1293508463C031C27
:10034000F12935082F3C0318C2293508393C031C14
:10035000C229300DB600310DB700B60DB70DB60D80
:10036000B70DB60DB70DF030B60530303502360793
:10037000F8003708FA000318FA0A7808B0007A087B
:10038000B100DB29300DB600310DB700B60DB70D49
:10039000B60DB70DB60DB70DF030B60541303502CC
:1003A0000A3E3607F8003708FA000318FA0A7808F8
:1003B000B0007A08B1003408B40A2E078400831311
:1003C0002F1883170008B500603C0318EE29350884
:1003D0007A3C031CEE293508DF39EF293508B500D2
:1003E000912933080A3C031DFC29320BFC29B00972
:1003F000B109B00A0319B10A3008F8003108F90050
:100400008A110A12EE2B0B08AF008B138316031709
:100410008C170C140000000083120313AF1B8B1702
:1004200003183B2A03170C087F390313AF00031787
:100430000D080313B00003170F080313B1002F08B2
:100440000C1E202A9900300803178D000313310871
:1004500003178F0003130B08B2008B1383160317C7
:100460008C170C140000000083120313B21B8B17AF
:10047000AE0B3B2A5B2A03170C0D0E0D7F390313BD
:10048000AF0003170D080313B00003170F08031381
:10049000B1002F080C1E4A2A9900300803178D005E
:1004A0000313310803178F008D0A03198F0A0310F5
:1004B0000313AE0B032A8A110A12FF2BB60104089C
:1004C000B5003610831B36142F0EF038B100B1077B
:1004D000E23EB200323EB4002F080F39B207B20735
:1004E000B407E93EB300B307B3072E0E0F39B307C5
:1004F000B407B30DB40DB409B40D2E080F39B40709
:10050000B10D0730B0000A30B407B303031C842ACE
:10051000B307B203031C882AB207B103031C8C2A59
:10052000B107B003031C902A3030840083130730D6
:1005300035053513840734300402031935170008D4
:10054000F700031DAB2A351BAB2A351AB32AB519A0
:10055000AB2A2030AE2AB51535123030F7077708B0
:100560000C1EB02A9900840A351F9B2A8A110A1290
:10057000062C390BBC2ABF2A4030BA00C02ABA0167
:1005800001303802BA073A088038BB00BC013B088A
:10059000BD00362008003708073A0319D92A0B3A5C
:1005A0000319DE2A063A0319E62A023A0319EC2A4D
:1005B000F12A0130B800B900B922F62ABC01013095
:1005C000BD0036200230B8000F20F62A0130B800F6
:1005D0000230B900B922F62ABC011030BD00362025
:1005E000F62A0130BC003708BD00362008000B0891
:1005F000AF008B13831603178C170C140000000038
:1006000083120313AF1B8B1703182E2B03170C0831
:100610007F390313AF0003170D080313B00003174E
:100620000F080313B1002F08B700CB2230080317BF
:100630008D000313310803178F0003130B08B2005A
:100640008B13831603178C170C1400000000831201
:100650000313B21B8B17AE0B2E2B4D2B03170C0D58
:100660000E0D7F390313AF0003170D080313B000FD
:1006700003170F080313B1002F08B700CB2230086F
:1006800003178D000313310803178F008D0A031918
:100690008F0A03100313AE0BF72A8A110A12102CCB
:1006A000B6010408B5003610831B36142F0EF0383F
:1006B000B100B107E23EB200323EB4002F080F395C
:1006C000B207B207B407E93EB300B307B3072E0E73
:1006D0000F39B307B407B30DB40DB409B40D2E0828
:1006E0000F39B407B10D0730B0000A30B407B303B7
:1006F000031C762BB307B203031C7A2BB207B1039A
:10070000031C7E2BB107B003031C822B3030840006
:100710008313073035053513840734300402031979
:1007200035170008F700031D9D2B351B9D2B351A2F
:10073000AF2BB5199D2B2030A02BB51535123030BD
:10074000F707AF010408AE002F10831B2F147708A2
:10075000B700CB222E08840083132F188317840A36
:10076000351F8D2B8A110A12172C78080319BD2BFF
:1007700077088000840AF80BB82B8A110A121E2C05
:1007800003081F398300193083169900A63098009A
:10079000903083129800A60183161F149F141F1512
:1007A0009F1107309C0083138312A001A1017628BA
:1007B0000A30B8000F208C1E262C8C1EDD2B1A0848
:1007C000AD002D082A3C031D1F2CA60127308400F4
:1007D0008313B428AF012730AE00CD287908AC00D0
:1007E0007808AB000310AB0DAC0D043003178D007F
:1007F00000308F00031005300313AE00032A1030C1
:1008000084002C08AF002B08AE005E2A09300317C5
:100810008D0000308F00031007300313AE00F72A5D
:10082000103084002C08AF002B08AE00502B27306E
:1008300084008313F7010430F800B52B262C2730F1
:100840002607840083132D088000A60ADB2B630093
:02400E00393F38
:00000001FF
;PIC16F877A
;CRC=A814  CREATED="17-May-21 17:56"
