:1000000003308A00B42B00004B383D1025367500B4
:100010008C25F01E25367500A025E91E25367500B5
:100020008C25E91E25367500A025E41E25367500B1
:100030008C25E41E253675008C25F01E253675109E
:10004000CB34BD12EC3A2005A025E41E2536750000
:100050003C3084008313000803193C280130F80069
:10006000F701F70B3128F80B30284A30F700F70B6F
:1000700037283A28800B2E280800430EF039F70065
:100080000F3008057704880000000814472808107E
:1000900008000808F700080E0F39F800080083165A
:1000A000081088100811831288100F308316080575
:1000B000F038880083120815000008140000492059
:1000C0007808C300081000000814000049207808D0
:1000D000C20008100F308316080588008312430EF3
:1000E000F700F030F70577084204F8007808C200FE
:1000F000C21B5528401C88104018881400000811A5
:1001000000000810410EC2000F30C2054208C300B3
:100110003D2041080F39C200C3003D2008002830AF
:10012000B3000C30B4000130B5000630B600081042
:10013000881008110F3083160805880008108810F1
:1001400008110F308312BC0028200130B2003208A1
:10015000033C031CB3280330C3003D200530BC0022
:100160002820B20AA7280230C3003D200530BC0079
:100170002820B2013208033C031CCA28333032075E
:10018000840083130008B700C0013708C1004F2066
:10019000B20ABA288A110A12D32BB801B6010A3062
:1001A000B700B501B40132083304031DDB28003069
:1001B000F800F900002A3808B80A320784008313CF
:1001C000331883170008B90039082D3C031DF428A3
:1001D0000130B6003808B80A320784008313331898
:1001E00083170008B900012939082B3C031D012998
:1001F0003808B80A320784008313331883170008BD
:10020000B90039082F3C0318F1293908393C031C7F
:10021000F1293908303C031D2D29380832078400A4
:100220008313331883170008783C031921293808F1
:10023000320784008313331883170008583C031DCA
:100240002D291030B700B80A3808B80A32078400E0
:100250008313331883170008B90037080A3C031DBD
:10026000802939082F3C03187F293908393C031CA1
:100270007F29BB010A30BA003508BD003408BC0034
:100280003B083D068039BF00BB1F4B29BA09BB099B
:10029000BA0A0319BB0ABD1F5229BC09BD09BC0A11
:1002A0000319BD0A1030BE00F701FA01BB0CBA0CED
:1002B000031C60293C08F7070318FA0A3D08FA07EF
:1002C000FA0CF70CF90CF80CBE0B5629BF1F6D2960
:1002D000F809F909F80A0319F90A303039027807E0
:1002E000B4007908B5000318B50A3808B80A32070F
:1002F00084008313331883170008B9003129F129CA
:100300003708103C031DF1293908603C03188F2978
:1003100039087A3C031C8F293908DF3990293908BC
:10032000B90039082F3C031899293908393C0318BA
:10033000A1293908403C0318F1293908463C031C1F
:10034000F12939082F3C0318C2293908393C031C0C
:10035000C229340DBA00350DBB00BA0DBB0DBA0D64
:10036000BB0DBA0DBB0DF030BA05303039023A077B
:10037000F8003B08FA000318FA0A7808B4007A0873
:10038000B500DB29340DBA00350DBB00BA0DBB0D2D
:10039000BA0DBB0DBA0DBB0DF030BA0541303902B4
:1003A0000A3E3A07F8003B08FA000318FA0A7808F0
:1003B000B4007A08B5003808B80A320784008313FD
:1003C000331883170008B900603C0318EE29390878
:1003D0007A3C031CEE293908DF39EF293908B900C6
:1003E000912937080A3C031DFC29360BFC29B40966
:1003F000B509B40A0319B50A3408F8003508F9003C
:1004000008000B08B3008B13831603178C170C140A
:100410000000000083120313B31B8B170318392A43
:1004200003170C087F390313B30003170D080313D8
:10043000B40003170F080313B50033080C1E1E2A5F
:100440009900340803178D000313350803178F0034
:1004500003130B08B6008B13831603178C170C14A9
:100460000000000083120313B61B8B17B20B392A4E
:10047000592A03170C0D0E0D7F390313B300031710
:100480000D080313B40003170F080313B500330856
:100490000C1E482A9900340803178D0003133508F1
:1004A00003178F008D0A03198F0A03100313B20B71
:1004B000012A0800BA010408B9003A10831B3A1453
:1004C000330EF038B500B507E23EB600323EB80054
:1004D00033080F39B607B607B807E93EB700B707C4
:1004E000B707320E0F39B707B807B70DB80DB809FF
:1004F000B80D32080F39B807B50D0730B4000A300F
:10050000B807B703031C802AB707B603031C842A65
:10051000B607B503031C882AB507B403031C8C2A4D
:100520003430840083130730390539138407383099
:100530000402031939170008F700031DA72A391B05
:10054000A72A391AAF2AB919A72A2030AA2AB91519
:1005500039123030F70777080C1EAC2A9900840A4C
:10056000391F972A08003D0BB62AB92A4030BE0031
:10057000BA2ABE0101303C02BE073E088038BF00E7
:10058000C0013F08C1004F2008003B08073A03198B
:10059000D32A0B3A0319D82A063A0319E02A023A59
:1005A0000319E62AEB2A0130BC00BD00B322F02A71
:1005B000C0010130C1004F200230BC002820F02AC9
:1005C0000130BC000230BD00B322F02AC00110305F
:1005D000C1004F20F02A0130C0003B08C1004F206D
:1005E00008000B08B3008B13831603178C170C1429
:1005F0000000000083120313B31B8B170318282B72
:1006000003170C087F390313B30003170D080313F6
:10061000B40003170F080313B5003308BB00C5224D
:10062000340803178D000313350803178F000313D5
:100630000B08B6008B13831603178C170C140000DD
:10064000000083120313B61B8B17B20B282B472B0A
:1006500003170C0D0E0D7F390313B30003170D089C
:100660000313B40003170F080313B5003308BB00CE
:10067000C522340803178D000313350803178F00B4
:100680008D0A03198F0A03100313B20BF12A080015
:10069000BA010408B9003A10831B3A14330EF0383B
:1006A000B500B507E23EB600323EB80033080F3958
:1006B000B607B607B807E93EB700B707B707320E67
:1006C0000F39B707B807B70DB80DB809B80D32081C
:1006D0000F39B807B50D0730B4000A30B807B703B3
:1006E000031C6E2BB707B603031C722BB607B503AA
:1006F000031C762BB507B403031C7A2B343084001B
:10070000831307303905391384073830040203197D
:1007100039170008F700031D952B391B952B391A43
:10072000A72BB919952B2030982BB91539123030D9
:10073000F707B3010408B2003310831B33147708A2
:10074000BB00C52232088400831333188317840A40
:10075000391F852B080078080319B32B7708800010
:10076000840AF80BAE2B080003081F3983001930E8
:1007700083169900A6309800903083129800A60145
:10078000AA01AC01AB01AE01AD01B001AF0183160E
:100790001F149F141F159F1107309C008313831291
:1007A000A001A1018F280A30BC0028208C1EBB2C80
:1007B0008C1ED82B1A08B1003108503C031D132C95
:1007C000B3012730B200CD207908AC007808AB0027
:1007D000043003178D0000308F0003100430031322
:1007E000B2000122103084002C08B3002B08B200A4
:1007F0005A22083003178D0000308F000310043098
:100800000313B200F122103084002C08B3002B082F
:10081000B2004823273084008313F7010330F80027
:10082000AB23A601BB2C3108493C031D4A2CB30164
:100830002730B200CD207908AE007808AD000C302A
:1008400003178D0000308F00031004300313B20033
:100850000122103084002E08B3002D08B2005A2265
:10086000103003178D0000308F0003100430031385
:10087000B200F122103084002E08B3002D08B2001F
:100880004823273084008313F7010330F800AB239B
:10089000A601BB2C3108443C031DB42CB301273006
:1008A000B200CD207908B0007808AF0014300317EB
:1008B0008D0000308F00031004300313B2000122BA
:1008C000103084003008B3002F08B2005A221830CC
:1008D00003178D0000308F00031004300313B200A3
:1008E000F122103084003008B3002F08B2004823F2
:1008F000273084008313F7010330F800AB23A601EF
:100900001C3003178D0000308F00031004300313D8
:10091000B200F122103084002C08B3002B08B20082
:1009200048231F3003178D0000308F00031404305C
:100930000313B200F122103084002E08B3002D08FA
:10094000B2004823233003178D0000308F000310BE
:1009500006300313B200F122103084003008B300D7
:100960002F08B2004823BB2C2730260784008313AE
:0A09700031088000A60AD62B6300B0
:02400E00393F38
:00000001FF
;PIC16F877A
;CRC=4728  CREATED="18-May-21 00:26"
