:1000000000308A0019280000223084008313000881
:10001000031918280130F800F701F70B0D28F80B29
:100020000C284A30F700F70B13281628800B0A28F3
:10003000080003081F398300193083169900A63081
:10004000980090308312980083161F149F141F1578
:100050009F1107309C008313363083120C1E2E280C
:1000600099000430A100FA30A2000420A10B33282B
:1000700030300C1E392899000430A100FA30A2005B
:100080000420A10B3E2850300C1E44289900043057
:10009000A100FA30A2000420A10B492832300C1E26
:1000A0004F2899000430A100FA30A2000420A10BCF
:1000B000542830300C1E5A2899000430A100FA3020
:1000C000A2000420A10B5F2849300C1E652899006E
:1000D0000430A100FA30A2000420A10B6A283430B9
:1000E0000C1E702899000430A100FA30A2000420F0
:1000F000A10B752839300C1E7B2899000430A10013
:10010000FA30A2000420A10B802844300C1E86285F
:1001100099000430A100FA30A2000420A10B8B2822
:0601200083162C28630089
:02400E00393F38
:00000001FF
;PIC16F877A
;CRC=33E2  CREATED="17-May-21 20:51"
